:100000000C9434000C9451000C9451000C94510049
:100010000C9451000C9451000C9451000C9451001C
:100020000C9451000C9451000C9451000C9451000C
:100030000C9451000C9451000C9451000C945100FC
:100040000C9451000C9451000C9451000C945100EC
:100050000C9451000C9451000C9451000C945100DC
:100060000C9451000C94510011241FBECFEFD8E026
:10007000DEBFCDBF11E0A0E0B1E0E6E2F1E002C0FA
:1000800005900D92A430B107D9F721E0A4E0B1E0CA
:1000900001C01D92AA30B207E1F70E9453000C94F0
:1000A00091000C94000080E091E00E9461002FEF2D
:1000B00087EA91E6215080409040E1F700C00000BF
:1000C000F2CF0F931F93CF93DF93E0910601F0914E
:1000D0000701238121FF1BC08C01D0E0C0E0F801A3
:1000E00081918F016091060170910701DB011896E3
:1000F000ED91FC911997882331F00995892B79F3BB
:10010000DFEFCFEFECCF8AE00995892B19F08FEF65
:100110009FEF02C08D2F9C2FDF91CF911F910F91E8
:060120000895F894FFCFE2
:0401260048656A00BE
:00000001FF
